:020000040000FA
:10000000680400206D02000071020000730200000D
:100010007502000077020000790200000000000075
:100020000000000000000000000000007B02000053
:100030007D020000000000007F020000810200003D
:10004000830200008302000083020000830200009C
:10005000830200008302000083020000830200008C
:10006000830200008302000083020000830200007C
:10007000830200008302000083020000830200006C
:10008000830200008302000083020000830200005C
:10009000830200008302000083020000830200004C
:1000A000830200008302000083020000830200003C
:1000B000830200008302000083020000830200002C
:1000C000830200008302000083020000830200001C
:1000D000830200008302000083020000830200000C
:1000E00083020000830200008302000083020000FC
:1000F00083020000830200008302000083020000EC
:1001000083020000830200008302000083020000DB
:1001100083020000830200008302000083020000CB
:1001200083020000830200008302000083020000BB
:1001300083020000830200008302000083020000AB
:1001400000000000000000000000000000000000AF
:10015000830200008302000083020000830200008B
:10016000000000000000000000000000000000008F
:10017000000000000000000000000000000000007F
:10018000000000000000000000000000000000006F
:10019000000000000000000000000000000000005F
:1001A000000000000000000000000000000000004F
:1001B000830200008302000083020000830200002B
:1001C000830200008302000083020000830200001B
:1001D000830200008302000083020000830200000B
:1001E00083020000830200008302000083020000FB
:1001F00083020000830200008302000083020000EB
:10020000830200008302000083020000000000005F
:1002100083020000830200008302000083020000CA
:1002200083020000830200008302000083020000BA
:1002300083020000830200008302000083020000AA
:10024000830200008302000083020000830200009A
:10025000830200008302000083020000830200008A
:1002600083020000830200008302000000F00AB84D
:10027000FEE7FEE7FEE7FEE7FEE7FEE7FEE7FEE756
:10028000FEE7FEE700F002F800F03AF80AA090E876
:10029000000C82448344AAF10107DA4501D100F041
:1002A0002FF8AFF2090EBAE80F0013F0010F18BFD4
:1002B000FB1A43F0010318476008000080080000A3
:1002C000103A24BF78C878C1FAD8520724BF30C882
:1002D00030C144BF04680C60704700000023002454
:1002E00000250026103A28BF78C1FBD8520728BF46
:1002F00030C148BF0B6070471FB51FBD10B510BDA2
:1003000000F029F81146FFF7F7FF00F0A9FA00F016
:1003100047F803B4FFF7F2FF03BC00F04FF800000A
:1003200072B6704762B67047EFF3108072B67047CE
:1003300080F31088704730BF704702480249014A75
:10034000024B70476800002068040020680000200D
:10035000704770477047754600F02CF8AE460500B0
:100360006946534620F00700854618B020B5FFF7D0
:10037000E4FFBDE820404FF000064FF000074FF0CB
:1003800000084FF0000BAC46ACE8C009ACE8C0096F
:10039000ACE8C009ACE8C00921F007018D46704700
:1003A00010B50446AFF300802046BDE81040FFF7CB
:1003B000B0BF000000487047080000200149182025
:1003C000ABBEFEE726000200704700004EF20810A8
:1003D000C4F20F0000688007002814D4FFE74EF233
:1003E0000811C4F20F01086840F002000860FFE73E
:1003F0004EF20810C4F20F0000688007002801D4F4
:10040000FFE7F5E7FFE745F22851C4F2000108686D
:1004100020F03C00086045F22041C4F20001086869
:1004200020F03C00086045F22C51C4F2000108683D
:100430006FF31720086045F20041C4F2000108681C
:1004400040F03C00086045F21C51C4F2000108680D
:1004500040F03C000860704781B04EF20811C4F2D1
:100460000F01086840F020000860FFE74EF2081016
:10047000C4F20F0000688006002801D4FFE7F5E70A
:1004800045F22851C4F20201086820F00E0008600D
:1004900045F22C51C4F2020108684FF6F072904305
:1004A000086045F20041C4F20201086840F00E0005
:1004B000086045F22041C4F20201086820F00E00F5
:1004C000086045F21C51C4F20201086840F00E00B9
:1004D000086045F23801C4F202010020086001B052
:1004E0007047000082B0019000910198013848F2F5
:1004F0005801C4F2020108600098013848F25C011A
:10050000C4F20201086002B0704700004EF2081009
:10051000C4F20F0000688007002814D4FFE74EF2F1
:100520000811C4F20F01086840F002000860FFE7FC
:100530004EF20810C4F20F0000688007002801D4B2
:10054000FFE7F5E7FFE745F22041C4F20001086844
:1005500040F0C000086045F22C51C4F20001086868
:1005600020F07F400860086840F08840086045F24D
:100570001C51C4F20001086840F0C00008604EF24F
:100580004061C4F20F01086840F0010008604EF2BB
:100590006001C4F20F01086820F4F010086048F20E
:1005A0004001C4F202010020086048F26003C4F276
:1005B00002031A6842F0C8021A6048F26403C4F2E7
:1005C00002031A6840F6084C42EA0C021A6048F22C
:1005D0005003C4F2020343F67F621A6048F25802E5
:1005E000C4F20202106048F25C02C4F2020210601F
:1005F000086840F00100086048F20801C4F20201F6
:10060000086820F0030008607047000081B04EF2D7
:100610000810C4F20F00016841F020010160006879
:10062000009045F22051C4F2020144F24B30C4F66E
:100630004F40086045F22451C4F20201086840F0BE
:100640000E00086045F22851C4F20201086820F04B
:100650000E00086045F22C51C4F2020108684FF602
:10066000F0729043086045F20041C4F2020108684C
:1006700040F00E00086045F22041C4F20201086813
:1006800020F00E00086045F21C51C4F20201086817
:1006900040F00E00086001B07047000081B08DF896
:1006A0000300FFE74CF21800C4F200000068800667
:1006B000002801D5FFE7F5E79DF803004CF20001A3
:1006C000C4F20001086001B07047000080B582B03C
:1006D0000190FFE70198007840B1FFE701980078AA
:1006E000FFF7DCFF019801300190F3E702B080BD15
:1006F000FFE74DF21800C4F200000068C0060028B1
:1007000001D5FFE7F5E74DF20000C4F200000068F4
:10071000C0B2704780B54EF20412C4F20F021068E6
:1007200040F0020010604EF20811C4F20F01086898
:1007300040F002000860106840F001001060086896
:1007400040F0010008604CF2300EC4F2000EDEF8FA
:10075000000020F00100CEF800004CF22400C4F2AA
:100760000000112202604CF22800C4F200004FF099
:10077000170CC0F800C04CF22C01C4F2000170202C
:100780000860DEF8001040F201331943CEF8001083
:1007900044F2204EC4F2000EDEF8001041F00301D6
:1007A000CEF8001044F21C5EC4F2000EDEF8001019
:1007B00041F00301CEF8001044F22C5EC4F2000EAA
:1007C000DEF8001062F30701CEF8001044F2285E54
:1007D000C4F2000EDEF8001021F00301CEF8001084
:1007E0004DF23001C4F20001D1F800E02EF0010E0C
:1007F000C1F800E04DF2240EC4F2000ECEF8002045
:100800004DF2280EC4F2000ECEF800C04DF22C0CB2
:10081000C4F2000CCCF8000008681843086045F2E8
:100820002041C4F20001086840F00300086045F26E
:100830001C51C4F20001086840F00300086045F252
:100840002C51C4F20001086862F30700086045F209
:100850002851C4F20001086820F00300086080BD40
:1008600080B584B000200390FFF7F6FDFFF752FF3C
:10087000FFF7CCFE40F6E420C0F20000FFF726FFB1
:10088000FFF7A4FDFFF742FE4FF4FA510846FFF7C9
:1008900029FEFFE7FFF72CFF8DF80B009DF80B00FA
:1008A000FFF7FCFE0D20FFF7F9FE0A20FFF7F6FE2A
:1008B0009DF80B00423801460191332800F2108167
:1008C0000199DFE811F049000D01EF000D0134003E
:1008D0000D010D010D010D010D015E000D010D0158
:1008E0000D010D010D019000C2000D01D1000D019F
:1008F0000D010D010D010D010D010D010D010D0188
:100900000D010D010D0149000D01EF000D01340035
:100910000D010D010D010D010D015E000D010D0117
:100920000D010D010D019000C2000D01D10045F235
:100930003801C4F202010820086045F2F001C4F257
:1009400000012820086048F20801C4F2020108688A
:1009500040F003000860C4E045F23801C4F202012F
:100960000420086045F2F001C4F200011420086080
:1009700048F20801C4F20201086840F00300086070
:10098000AFE045F23801C4F202010A20086045F2E6
:10099000F000C4F20000006828280DD1FFE748F2FB
:1009A0000801C4F20201086840F00200086008680B
:1009B00020F00100086015E045F2F000C4F20000EC
:1009C000006814280DD1FFE748F20801C4F20201C3
:1009D000086820F002000860086840F00100086024
:1009E000FFE7FFE77DE045F23801C4F2020106208F
:1009F000086045F2F000C4F20000006828280DD11C
:100A0000FFE748F20801C4F20201086820F0020082
:100A10000860086840F00100086015E045F2F00049
:100A2000C4F20000006814280DD1FFE748F2080165
:100A3000C4F20201086840F002000860086820F073
:100A400001000860FFE7FFE74BE045F23801C4F220
:100A500002010020086048F20801C4F2020108689F
:100A600020F0030008603CE040F20000C2F2000009
:100A7000016801F57A7101600068B0F57A5F08D30A
:100A8000FFE740F20001C2F200014FF4FA500860A3
:100A9000FFE740F20000C2F2000001680846FFF7DD
:100AA00021FD1EE040F20000C2F200000168A1F545
:100AB0007A7101600068B0F5FA6F08D8FFE740F27C
:100AC0000001C2F200014FF4FA500860FFE740F263
:100AD0000000C2F2000001680846FFF703FD00E0D5
:100AE000FFE7D7E63E3E3E2057656C636F6D65209D
:100AF000746F20426C7565746F6F746820436F6EFD
:100B000074726F6C6C6564204C4544204170702099
:100B10003C3C3C0A0D000000380B000000000020A7
:100B200004000000C00200003C0B00000800002090
:0C0B300060040000DC020000401F000018
:040000050000026D88
:00000001FF
